{
  "_format": "hh-sol-artifact-1",
  "contractName": "InsuranceClaims",
  "sourceName": "contracts/InsuranceClaims.sol",
  "abi": [
    {
      "inputs": [],
      "stateMutability": "nonpayable",
      "type": "constructor"
    },
    {
      "anonymous": false,
      "inputs": [
        {
          "indexed": true,
          "internalType": "uint256",
          "name": "claimId",
          "type": "uint256"
        },
        {
          "indexed": true,
          "internalType": "uint256",
          "name": "policyNumber",
          "type": "uint256"
        },
        {
          "indexed": true,
          "internalType": "address",
          "name": "claimant",
          "type": "address"
        },
        {
          "indexed": false,
          "internalType": "uint256",
          "name": "paidAmount",
          "type": "uint256"
        }
      ],
      "name": "ClaimProcessed",
      "type": "event"
    },
    {
      "anonymous": false,
      "inputs": [
        {
          "indexed": true,
          "internalType": "uint256",
          "name": "claimId",
          "type": "uint256"
        },
        {
          "indexed": true,
          "internalType": "uint256",
          "name": "policyNumber",
          "type": "uint256"
        },
        {
          "indexed": true,
          "internalType": "address",
          "name": "claimant",
          "type": "address"
        },
        {
          "indexed": false,
          "internalType": "uint256",
          "name": "amount",
          "type": "uint256"
        },
        {
          "indexed": false,
          "internalType": "string",
          "name": "treatmentType",
          "type": "string"
        }
      ],
      "name": "ClaimSubmitted",
      "type": "event"
    },
    {
      "anonymous": false,
      "inputs": [
        {
          "indexed": true,
          "internalType": "uint256",
          "name": "claimId",
          "type": "uint256"
        }
      ],
      "name": "ClaimVerified",
      "type": "event"
    },
    {
      "anonymous": false,
      "inputs": [
        {
          "indexed": true,
          "internalType": "uint256",
          "name": "policyNumber",
          "type": "uint256"
        },
        {
          "indexed": true,
          "internalType": "address",
          "name": "policyholder",
          "type": "address"
        },
        {
          "indexed": false,
          "internalType": "uint256",
          "name": "coverageAmount",
          "type": "uint256"
        },
        {
          "indexed": false,
          "internalType": "uint256",
          "name": "startDate",
          "type": "uint256"
        },
        {
          "indexed": false,
          "internalType": "uint256",
          "name": "endDate",
          "type": "uint256"
        },
        {
          "indexed": false,
          "internalType": "string",
          "name": "policyType",
          "type": "string"
        }
      ],
      "name": "PolicyCreated",
      "type": "event"
    },
    {
      "inputs": [
        {
          "internalType": "uint256",
          "name": "",
          "type": "uint256"
        }
      ],
      "name": "claims",
      "outputs": [
        {
          "internalType": "uint256",
          "name": "policyNumber",
          "type": "uint256"
        },
        {
          "internalType": "address",
          "name": "policyholder",
          "type": "address"
        },
        {
          "internalType": "uint256",
          "name": "amount",
          "type": "uint256"
        },
        {
          "internalType": "string",
          "name": "treatmentType",
          "type": "string"
        },
        {
          "internalType": "uint256",
          "name": "timestamp",
          "type": "uint256"
        },
        {
          "internalType": "bool",
          "name": "isVerified",
          "type": "bool"
        },
        {
          "internalType": "bool",
          "name": "isPaid",
          "type": "bool"
        },
        {
          "internalType": "uint256",
          "name": "paidAmount",
          "type": "uint256"
        },
        {
          "internalType": "string",
          "name": "aabhaId",
          "type": "string"
        },
        {
          "internalType": "uint256",
          "name": "patientAdmissionDate",
          "type": "uint256"
        },
        {
          "internalType": "uint256",
          "name": "flightId",
          "type": "uint256"
        },
        {
          "internalType": "bool",
          "name": "flightCancellationStatus",
          "type": "bool"
        },
        {
          "internalType": "uint256",
          "name": "flightDelayMinutes",
          "type": "uint256"
        },
        {
          "internalType": "uint256",
          "name": "flightDurationMinutes",
          "type": "uint256"
        }
      ],
      "stateMutability": "view",
      "type": "function"
    },
    {
      "inputs": [
        {
          "internalType": "uint256",
          "name": "",
          "type": "uint256"
        }
      ],
      "name": "claimsCountPerYear",
      "outputs": [
        {
          "internalType": "uint256",
          "name": "",
          "type": "uint256"
        }
      ],
      "stateMutability": "view",
      "type": "function"
    },
    {
      "inputs": [
        {
          "internalType": "address",
          "name": "_policyholder",
          "type": "address"
        },
        {
          "internalType": "uint256",
          "name": "_coverageAmount",
          "type": "uint256"
        },
        {
          "internalType": "uint256",
          "name": "_startDate",
          "type": "uint256"
        },
        {
          "internalType": "uint256",
          "name": "_endDate",
          "type": "uint256"
        },
        {
          "internalType": "string",
          "name": "_policyType",
          "type": "string"
        },
        {
          "internalType": "uint256",
          "name": "_maxCoveragePerClaim",
          "type": "uint256"
        },
        {
          "internalType": "uint256",
          "name": "_copayPercentage",
          "type": "uint256"
        },
        {
          "internalType": "string[]",
          "name": "_coveredTreatments",
          "type": "string[]"
        },
        {
          "internalType": "string[]",
          "name": "_excludedTreatments",
          "type": "string[]"
        },
        {
          "internalType": "uint256",
          "name": "_waitingPeriod",
          "type": "uint256"
        },
        {
          "internalType": "uint256",
          "name": "_maxClaimsPerYear",
          "type": "uint256"
        },
        {
          "internalType": "bool",
          "name": "_preExistingConditionsCovered",
          "type": "bool"
        },
        {
          "internalType": "uint256",
          "name": "_maxHospitalizationDays",
          "type": "uint256"
        },
        {
          "internalType": "uint256",
          "name": "_maxRoomRent",
          "type": "uint256"
        },
        {
          "internalType": "uint256",
          "name": "_maxICUCharges",
          "type": "uint256"
        },
        {
          "internalType": "uint256",
          "name": "_maxOperationCharges",
          "type": "uint256"
        },
        {
          "internalType": "uint256",
          "name": "_maxMedicineCharges",
          "type": "uint256"
        },
        {
          "internalType": "uint256",
          "name": "_maxDiagnosticCharges",
          "type": "uint256"
        },
        {
          "internalType": "uint256",
          "name": "_maxAmbulanceCharges",
          "type": "uint256"
        },
        {
          "internalType": "uint256",
          "name": "_maxPreHospitalizationDays",
          "type": "uint256"
        },
        {
          "internalType": "uint256",
          "name": "_maxPostHospitalizationDays",
          "type": "uint256"
        },
        {
          "internalType": "uint256",
          "name": "_delayTimeMinutes",
          "type": "uint256"
        },
        {
          "internalType": "bool",
          "name": "_cancellationStatus",
          "type": "bool"
        },
        {
          "internalType": "uint256",
          "name": "_travelTimeHours",
          "type": "uint256"
        }
      ],
      "name": "createPolicy",
      "outputs": [],
      "stateMutability": "nonpayable",
      "type": "function"
    },
    {
      "inputs": [
        {
          "internalType": "uint256",
          "name": "_claimId",
          "type": "uint256"
        }
      ],
      "name": "getClaim",
      "outputs": [
        {
          "internalType": "uint256",
          "name": "policyNumber",
          "type": "uint256"
        },
        {
          "internalType": "address",
          "name": "policyholder",
          "type": "address"
        },
        {
          "internalType": "uint256",
          "name": "amount",
          "type": "uint256"
        },
        {
          "internalType": "string",
          "name": "treatmentType",
          "type": "string"
        },
        {
          "internalType": "uint256",
          "name": "timestamp",
          "type": "uint256"
        },
        {
          "internalType": "bool",
          "name": "isVerified",
          "type": "bool"
        },
        {
          "internalType": "bool",
          "name": "isPaid",
          "type": "bool"
        },
        {
          "internalType": "uint256",
          "name": "paidAmount",
          "type": "uint256"
        },
        {
          "internalType": "string",
          "name": "aabhaId",
          "type": "string"
        },
        {
          "internalType": "uint256",
          "name": "patientAdmissionDate",
          "type": "uint256"
        },
        {
          "internalType": "uint256",
          "name": "flightId",
          "type": "uint256"
        },
        {
          "internalType": "bool",
          "name": "flightCancellationStatus",
          "type": "bool"
        },
        {
          "internalType": "uint256",
          "name": "flightDelayMinutes",
          "type": "uint256"
        },
        {
          "internalType": "uint256",
          "name": "flightDurationMinutes",
          "type": "uint256"
        }
      ],
      "stateMutability": "view",
      "type": "function"
    },
    {
      "inputs": [
        {
          "internalType": "uint256",
          "name": "_policyNumber",
          "type": "uint256"
        }
      ],
      "name": "getPolicy",
      "outputs": [
        {
          "internalType": "address",
          "name": "policyholder",
          "type": "address"
        },
        {
          "internalType": "uint256",
          "name": "coverageAmount",
          "type": "uint256"
        },
        {
          "internalType": "uint256",
          "name": "startDate",
          "type": "uint256"
        },
        {
          "internalType": "uint256",
          "name": "endDate",
          "type": "uint256"
        },
        {
          "internalType": "string",
          "name": "policyType",
          "type": "string"
        },
        {
          "internalType": "bool",
          "name": "isActive",
          "type": "bool"
        }
      ],
      "stateMutability": "view",
      "type": "function"
    },
    {
      "inputs": [],
      "name": "insurer",
      "outputs": [
        {
          "internalType": "address",
          "name": "",
          "type": "address"
        }
      ],
      "stateMutability": "view",
      "type": "function"
    },
    {
      "inputs": [],
      "name": "nextClaimId",
      "outputs": [
        {
          "internalType": "uint256",
          "name": "",
          "type": "uint256"
        }
      ],
      "stateMutability": "view",
      "type": "function"
    },
    {
      "inputs": [],
      "name": "nextPolicyNumber",
      "outputs": [
        {
          "internalType": "uint256",
          "name": "",
          "type": "uint256"
        }
      ],
      "stateMutability": "view",
      "type": "function"
    },
    {
      "inputs": [],
      "name": "nextRecordId",
      "outputs": [
        {
          "internalType": "uint256",
          "name": "",
          "type": "uint256"
        }
      ],
      "stateMutability": "view",
      "type": "function"
    },
    {
      "inputs": [],
      "name": "owner",
      "outputs": [
        {
          "internalType": "address",
          "name": "",
          "type": "address"
        }
      ],
      "stateMutability": "view",
      "type": "function"
    },
    {
      "inputs": [
        {
          "internalType": "uint256",
          "name": "",
          "type": "uint256"
        }
      ],
      "name": "policies",
      "outputs": [
        {
          "internalType": "address",
          "name": "policyholder",
          "type": "address"
        },
        {
          "internalType": "uint256",
          "name": "coverageAmount",
          "type": "uint256"
        },
        {
          "internalType": "uint256",
          "name": "startDate",
          "type": "uint256"
        },
        {
          "internalType": "uint256",
          "name": "endDate",
          "type": "uint256"
        },
        {
          "internalType": "string",
          "name": "policyType",
          "type": "string"
        },
        {
          "internalType": "bool",
          "name": "isActive",
          "type": "bool"
        },
        {
          "components": [
            {
              "internalType": "uint256",
              "name": "maxCoveragePerClaim",
              "type": "uint256"
            },
            {
              "internalType": "uint256",
              "name": "copayPercentage",
              "type": "uint256"
            },
            {
              "internalType": "string[]",
              "name": "coveredTreatments",
              "type": "string[]"
            },
            {
              "internalType": "string[]",
              "name": "excludedTreatments",
              "type": "string[]"
            },
            {
              "internalType": "uint256",
              "name": "waitingPeriod",
              "type": "uint256"
            },
            {
              "internalType": "uint256",
              "name": "maxClaimsPerYear",
              "type": "uint256"
            },
            {
              "internalType": "bool",
              "name": "preExistingConditionsCovered",
              "type": "bool"
            },
            {
              "internalType": "uint256",
              "name": "maxHospitalizationDays",
              "type": "uint256"
            },
            {
              "internalType": "uint256",
              "name": "maxRoomRent",
              "type": "uint256"
            },
            {
              "internalType": "uint256",
              "name": "maxICUCharges",
              "type": "uint256"
            },
            {
              "internalType": "uint256",
              "name": "maxOperationCharges",
              "type": "uint256"
            },
            {
              "internalType": "uint256",
              "name": "maxMedicineCharges",
              "type": "uint256"
            },
            {
              "internalType": "uint256",
              "name": "maxDiagnosticCharges",
              "type": "uint256"
            },
            {
              "internalType": "uint256",
              "name": "maxAmbulanceCharges",
              "type": "uint256"
            },
            {
              "internalType": "uint256",
              "name": "maxPreHospitalizationDays",
              "type": "uint256"
            },
            {
              "internalType": "uint256",
              "name": "maxPostHospitalizationDays",
              "type": "uint256"
            },
            {
              "internalType": "uint256",
              "name": "delayTimeMinutes",
              "type": "uint256"
            },
            {
              "internalType": "bool",
              "name": "cancellationStatus",
              "type": "bool"
            },
            {
              "internalType": "uint256",
              "name": "travelTimeHours",
              "type": "uint256"
            }
          ],
          "internalType": "struct InsuranceClaims.PolicyTerms",
          "name": "terms",
          "type": "tuple"
        },
        {
          "internalType": "uint256",
          "name": "claimsCount",
          "type": "uint256"
        }
      ],
      "stateMutability": "view",
      "type": "function"
    },
    {
      "inputs": [
        {
          "internalType": "uint256",
          "name": "",
          "type": "uint256"
        },
        {
          "internalType": "uint256",
          "name": "",
          "type": "uint256"
        }
      ],
      "name": "policyClaims",
      "outputs": [
        {
          "internalType": "uint256",
          "name": "",
          "type": "uint256"
        }
      ],
      "stateMutability": "view",
      "type": "function"
    },
    {
      "inputs": [
        {
          "internalType": "uint256",
          "name": "_claimId",
          "type": "uint256"
        }
      ],
      "name": "processClaim",
      "outputs": [],
      "stateMutability": "nonpayable",
      "type": "function"
    },
    {
      "inputs": [
        {
          "internalType": "address",
          "name": "_insurer",
          "type": "address"
        }
      ],
      "name": "setInsurer",
      "outputs": [],
      "stateMutability": "nonpayable",
      "type": "function"
    },
    {
      "inputs": [
        {
          "internalType": "uint256",
          "name": "_policyNumber",
          "type": "uint256"
        },
        {
          "internalType": "uint256",
          "name": "_amount",
          "type": "uint256"
        },
        {
          "internalType": "string",
          "name": "_treatmentType",
          "type": "string"
        },
        {
          "internalType": "string",
          "name": "_aabhaId",
          "type": "string"
        },
        {
          "internalType": "uint256",
          "name": "_patientAdmissionDate",
          "type": "uint256"
        },
        {
          "internalType": "uint256",
          "name": "_flightId",
          "type": "uint256"
        },
        {
          "internalType": "bool",
          "name": "_flightCancellationStatus",
          "type": "bool"
        },
        {
          "internalType": "uint256",
          "name": "_flightDelayMinutes",
          "type": "uint256"
        },
        {
          "internalType": "uint256",
          "name": "_flightDurationMinutes",
          "type": "uint256"
        }
      ],
      "name": "submitClaim",
      "outputs": [],
      "stateMutability": "nonpayable",
      "type": "function"
    },
    {
      "inputs": [
        {
          "internalType": "uint256",
          "name": "_claimId",
          "type": "uint256"
        }
      ],
      "name": "verifyClaim",
      "outputs": [],
      "stateMutability": "nonpayable",
      "type": "function"
    }
  ],
  "bytecode": "0x6080806040523461003757600080546001600160a01b031916331790556001600281905560038190556004556128c4908161003d8239f35b600080fdfe6080604052600436101561001257600080fd5b60003560e01c806304dcccc614611752578063055b084014610b13578063161ef13d14610af55780632b07fce314610a1f578063560eb394146109d85780635aef2447146109075780637257dfc9146107d55780638da5cb5b146107ac578063a0021cf11461078e578063a888c2cd146106d7578063a8e7410814610641578063c0d7e2b6146103f0578063c22fc759146103c4578063d3e8948314610118578063dbc837c5146100ef5763dbde207d146100cc57600080fd5b346100ea5760003660031901126100ea576020600454604051908152f35b600080fd5b346100ea5760003660031901126100ea576001546040516001600160a01b039091168152602090f35b346100ea5760203660031901126100ea576004356000526005602052604060002060018060a01b038154166001820154916002810154600382015491604051906101708261016981600485016125c3565b0383612370565b60ff600582015416916040519461026086018681106001600160401b038211176103ae576102a99360199160405260068101548852600781015460208901526101bb60088201612659565b60408901526101cc60098201612659565b6060890152600a8101546080890152600b81015460a089015260ff600c82015416151560c0890152600d81015460e0890152600e810154610100890152600f81015461012089015260108101546101408901526011810154610160890152601281015461018089015260138101546101a089015260148101546101c089015260158101546101e0890152601681015461020089015260ff6017820154161515610220890152601881015461024089015201549460405198899889526020890152604088015260608701526101006080870152610100860190612494565b90151560a085015283810360c08501528251815260208301516020820152610240806102fb6102e9604087015161026060408701526102608601906126be565b606087015185820360608701526126be565b946080810151608085015260a081015160a085015260c0810151151560c085015260e081015160e08501526101008101516101008501526101208101516101208501526101408101516101408501526101608101516101608501526101808101516101808501526101a08101516101a08501526101c08101516101c08501526101e08101516101e08501526102008101516102008501526102208101511515610220850152015191015260e08301520390f35b634e487b7160e01b600052604160045260246000fd5b346100ea5760203660031901126100ea5760043560005260086020526020604060002054604051908152f35b346100ea576020806003193601126100ea57600435908160005260068152610421600460406000200154151561282b565b816000526006815260406000209081546000526005815260406000206040516104588161045181600486016125c3565b0382612370565b828151910120610466612713565b8051908401200361053a575061047f6007830154612589565b15610503576008820154156104c657506005905b01805460ff191660011790557f393efda0b92bc01071b66a816d6bcddde867b8c91da505a0f309d9133a53650a600080a2005b6064906040519062461bcd60e51b8252600482015260166024820152754d697373696e672061646d697373696f6e206461746560501b6044820152fd5b6064906040519062461bcd60e51b82526004820152601060248201526f135a5cdcda5b99c8105050921048125160821b6044820152fd5b60098301541561060857610558600b8401546016830154101561277d565b600c8301546018820154603c810290808204603c14901517156105f2576105809111156127d3565b60ff601781600a86015416920154161515901515036105a25750600590610493565b6084906040519062461bcd60e51b82526004820152602360248201527f466c696768742063616e63656c6c6174696f6e20737461747573206d69736d616044820152620e8c6d60eb1b6064820152fd5b634e487b7160e01b600052601160045260246000fd5b60405162461bcd60e51b8152600481018390526011602482015270135a5cdcda5b99c8199b1a59da1d081251607a1b6044820152606490fd5b346100ea5760203660031901126100ea5761065a6123e7565b6000546001600160a01b0391908216330361068857166001600160601b0360a01b6001541617600155600080f35b60405162461bcd60e51b815260206004820152602160248201527f4f6e6c79206f776e65722063616e2063616c6c20746869732066756e6374696f6044820152603760f91b6064820152608490fd5b346100ea5760203660031901126100ea5760043560005260066020526040600020805461078a60018060a01b03600184015416916002840154936040519161072d8361072681600386016125c3565b0384612370565b6004820154906005830154600684015460405190610752826101698160078a016125c3565b60088601549260098701549460ff600a8901541696600c600b8a0154990154996040519d8e9d8e9460ff808860081c16971695612502565b0390f35b346100ea5760003660031901126100ea576020600354604051908152f35b346100ea5760003660031901126100ea576000546040516001600160a01b039091168152602090f35b346100ea576020806003193601126100ea576004358060005260068252604060002090600582019283549060ff8216156108ce5760ff8260081c16610895578354938460005260058252604060002095600760028301549701548088029088820414881517156105f2576064900487039687116105f2576101007f0849691c977f9a77b8daa21c9421d1b771d1b125cbcf97b43d24f17128f6d4359461ff0019161790558560068201556001808060a01b039101541694604051908152a4005b6064906040519062461bcd60e51b82526004820152601260248201527110db185a5b48185b1c9958591e481c185a5960721b6044820152fd5b6064906040519062461bcd60e51b82526004820152601260248201527110db185a5b481b9bdd081d995c9a599a595960721b6044820152fd5b346100ea5760203660031901126100ea57600435806000526006602052610937600460406000200154151561282b565b6000526006602052604060002080549061078a60018060a01b036001830154169160028101549360048201549060058301546006840154600760088601549160098701549360ff600a8901541695600b89015497600c8a0154996109c0604051916109a98361072681600385016125c3565b6109b960405180998193016125c3565b0387612370565b6040519d8e9d8e9460ff808860081c16971695612502565b346100ea5760403660031901126100ea576024356004356000526007602052604060002080548210156100ea57602091610a11916124d4565b90546040519160031b1c8152f35b346100ea5760203660031901126100ea57600435600090815260056020526040902080546001600160a01b03168015610ab857600182015491610aac60046002830154600384015490610a8460ff6005870154169561072660405180968193016125c3565b604051968796875260208701526040860152606085015260c0608085015260c0840190612494565b90151560a08301520390f35b60405162461bcd60e51b8152602060048201526015602482015274141bdb1a58de48191bd95cc81b9bdd08195e1a5cdd605a1b6044820152606490fd5b346100ea5760003660031901126100ea576020600254604051908152f35b346100ea576103003660031901126100ea57610b2d6123e7565b60849081356001600160401b0381116100ea57610b4e903690600401612391565b9160e4356001600160401b0381116100ea57610b6e903690600401612414565b91610104356001600160401b0381116100ea57610b8f903690600401612414565b9261016435151561016435036100ea576102c43515156102c435036100ea576001546001600160a01b0393908416330361170457838316156116bf576024351561166b57604435156116315760443560643511156115e55760243560a4351161158757606460c4351161153a57605a61012435116114ec57610144351515806114de575b156114875761016d610184351161143257601e61026435116113da57603c6102843511611381576101e06102a4351161133d5760306102e435116112f05750845160208601908120610c63612713565b60208151910120149081156112d4575b50156112995760025493610c8685612757565b6002558460005260056020526040600020918484166001600160601b0360a01b84541617835560243560018401556044356002840155606435600384015586516001600160401b0381116103ae57610ce16004850154612589565b601f8111611264575b50806020601f82116001146111f6576000916111eb575b508160011b916000199060031b1c19161760048401555b60a435600684015560c4356007840155805190600160401b82116103ae576008840154826008860155808310611173575b5060200190600884016000526020600020916000905b82821061105e5750505050805190600160401b82116103ae576009830154826009850155808310610fe6575b5060200190600983016000526020600020916000905b828210610ec65788887f040c4be14b60aea566c81b5a163dafa67bfa53127ad672a5af714bd08beeed6c8989600060198b61012435600a82015561014435600b820155610e0061016435600c83019060ff801983541691151516179055565b61018435600d8201556101a435600e8201556101c435600f8201556101e43560108201556102043560118201556102243560128201556102443560138201556102643560148201556102843560158201556102a4356016820155610e766102c435601783019060ff801983541691151516179055565b6102e435601882015560058101600160ff198254161790550155610ec16040519283926024358452604435602085015260643560408501526080606085015216956080830190612494565b0390a3005b80518051906001600160401b0382116103ae57610ee38654612589565b601f8111610fa9575b50602090601f8311600114610f39579282600194936020938695600092610f2e575b5050600019600383901b1c191690841b1787555b01940191019092610da1565b015190508e80610f0e565b908660005260206000209160005b601f1985168110610f91575083602093600196938796938794601f19811610610f78575b505050811b018755610f22565b015160001960f88460031b161c191690558e8080610f6b565b91926020600181928685015181550194019201610f47565b610fd690876000526020600020601f850160051c81019160208610610fdc575b601f0160051c0190612766565b8b610eec565b9091508190610fc9565b600984016000526020600020908382015b8183018110611007575050610d8b565b8061101460019254612589565b80611021575b5001610ff7565b601f811183146110375750600081555b8b61101a565b600090828252611055601f60208420920160051c8201858301612766565b81835555611031565b80518051906001600160401b0382116103ae5761107b8654612589565b601f8111611141575b50602090601f83116001146110d15792826001949360209386956000926110c6575b5050600019600383901b1c191690841b1787555b01940191019092610d5f565b015190508f806110a6565b908660005260206000209160005b601f1985168110611129575083602093600196938796938794601f19811610611110575b505050811b0187556110ba565b015160001960f88460031b161c191690558f8080611103565b919260206001819286850151815501940192016110df565b61116d90876000526020600020601f850160051c81019160208610610fdc57601f0160051c0190612766565b8c611084565b600885016000526020600020908382015b8183018110611194575050610d49565b806111a160019254612589565b806111ae575b5001611184565b601f811183146111c45750600081555b8c6111a7565b6000908282526111e2601f60208420920160051c8201858301612766565b818355556111be565b905088015189610d01565b91506004850160005260206000206000925b8a601f198416851061124d57506001935082601f19811610611234575b5050811b016004840155610d18565b8a015160001960f88460031b161c191690558980611225565b810151825560209384019360019092019101611208565b61129390600486016000526020600020601f840160051c81019160208510610fdc57601f0160051c0190612766565b88610cea565b60405162461bcd60e51b8152602060048201526013602482015272496e76616c696420706f6c696379207479706560681b6044820152606490fd5b9050855190206112e2612735565b602081519101201486610c73565b60405162461bcd60e51b815260206004820152602260248201527f54726176656c2074696d652063616e6e6f742065786365656420343820686f75604482015261727360f01b6064820152fd5b606460405162461bcd60e51b815260206004820152602060248201527f44656c61792074696d652063616e6e6f7420657863656564203820686f7572736044820152fd5b60405162461bcd60e51b815260206004820152602e60248201527f4d617820706f73742d686f73706974616c697a6174696f6e206461797320636160448201526d06e6e6f74206578636565642036360941b6064820152fd5b60405162461bcd60e51b815260206004820152602d60248201527f4d6178207072652d686f73706974616c697a6174696f6e20646179732063616e60448201526c06e6f742065786365656420333609c1b6064820152fd5b60405162461bcd60e51b815260206004820152602a60248201527f4d617820686f73706974616c697a6174696f6e20646179732063616e6e6f74206044820152696578636565642033363560b01b6064820152fd5b60405162461bcd60e51b815260206004820152602c60248201527f4d617820636c61696d73207065722079656172206d757374206265206265747760448201526b065656e203120616e642031360a41b6064820152fd5b50600a610144351115610c13565b60405162461bcd60e51b8152602060048201526024808201527f57616974696e6720706572696f642063616e6e6f7420657863656564203930206044820152636461797360e01b6064820152fd5b60405162461bcd60e51b815260206004820152602260248201527f436f7061792070657263656e746167652063616e6e6f74206578636565642031604482015261030360f41b6064820152fd5b60405162461bcd60e51b815260206004820152603360248201527f4d617820636f7665726167652070657220636c61696d2063616e6e6f742065786044820152726365656420746f74616c20636f76657261676560681b6064820152fd5b60405162461bcd60e51b815260206004820152602160248201527f456e642064617465206d757374206265206166746572207374617274206461746044820152606560f81b6064820152fd5b60405162461bcd60e51b8152602060048201526012602482015271496e76616c6964207374617274206461746560701b6044820152606490fd5b60405162461bcd60e51b815260206004820152602960248201527f436f76657261676520616d6f756e74206d7573742062652067726561746572206044820152687468616e207a65726f60b81b6064820152fd5b60405162461bcd60e51b815260206004820152601c60248201527f496e76616c696420706f6c696379686f6c6465722061646472657373000000006044820152606490fd5b60405162461bcd60e51b815260206004820152602360248201527f4f6e6c7920696e73757265722063616e2063616c6c20746869732066756e637460448201526234b7b760e91b6064820152fd5b346100ea576101203660031901126100ea576044356001600160401b0381116100ea57611783903690600401612391565b60649081356001600160401b0381116100ea576117a4903690600401612391565b9160c4351515908160c435036100ea57600435600052600560205260406000209160018060a01b0383541633036123055760ff600584015416156122cb576002830154600a84015462015180908181029181830414901517156105f25781018091116105f257421061228857600383015442116122545760243515612201576006830154602435116121a5576019830154600b84015411156121625760405160048401906118568161045181856125c3565b60208151910120611865612713565b6020815191012014600014611ef45750845115611ea557608490813515611e515760a435611e0957611dbd5760e435611d785761010435611d305750600982015460005b818110611cb85750506000806008840154905b818110611c6b575b505015611c2957505b600354926118da84612757565b600355836000526006602052604060002090600435825560018201336001600160601b0360a01b825416179055602435600283015583516001600160401b0381116103ae5761192c6003840154612589565b601f8111611bf4575b50806020601f8211600114611b8757600091611b7c575b508160011b916000199060031b1c19161760038301555b8051906001600160401b0382116103ae5781906119836007850154612589565b601f8111611b47575b50602090601f8311600114611ad557600092611aca575b50508160011b916000199060031b1c19161760078201555b608435600882015560a43560098201556119e660c435600a83019060ff801983541691151516179055565b60e435600b82015561010435600c8201556005810161ffff198154169055600060068201556004429101556019611a1f81830154612757565b910155600435600052600760205260406000208054600160401b8110156103ae57611a4f916001820181556124d4565b81549060031b9084821b91600019901b191617905560043560005260086020526040600020611a7e8154612757565b9055604051916024358352604060208401527fd91ad459d6781ac1a94eb5c677e1aa55ab8d256cae923e543a7e969235a041ca339380611ac5600435956040830190612494565b0390a4005b0151905086806119a3565b9250600784016000526020600020906000935b601f1984168510611b2c576001945083601f19811610611b13575b505050811b0160078201556119bb565b015160001960f88460031b161c19169055868080611b03565b81810151835560209485019460019093019290910190611ae8565b611b7690600786016000526020600020601f850160051c81019160208610610fdc57601f0160051c0190612766565b8761198c565b90508501518761194c565b91506003840160005260206000206000925b601f1983168410611bdc576001935082601f19811610611bc3575b5050811b016003830155611963565b87015160001960f88460031b161c191690558780611bb4565b87810151825560209384019360019092019101611b99565b611c2390600385016000526020600020601f840160051c81019160208510610fdc57601f0160051c0190612766565b86611935565b60405162461bcd60e51b815260206004820152601f60248201527f54726561746d656e74206e6f7420636f766572656420627920706f6c696379006044820152fd5b610451611c8b611c7e83600889016124d4565b50604051928380926125c3565b602081519101208651602088012014611cac57611ca790612757565b6118bc565b505050600185806118c4565b610451611ccb611c7e83600988016124d4565b602081519101208551602087012014611cec57611ce790612757565b6118a9565b60405162461bcd60e51b815260206004820152601c60248201527f54726561746d656e74206578636c7564656420627920706f6c6963790000000060448201528390fd5b906e333634b3b43a10323ab930ba34b7b760891b6040519162461bcd60e51b835260206004840152602f602484015260008051602061286f8339815191526044840152820152fd5b906b666c696768742064656c617960a01b6040519162461bcd60e51b835260206004840152602c602484015260008051602061286f8339815191526044840152820152fd5b9072333634b3b43a1031b0b731b2b63630ba34b7b760691b6040519162461bcd60e51b8352602060048401526033602484015260008051602061286f8339815191526044840152820152fd5b50906d666c696768742064657461696c7360901b6040519162461bcd60e51b835260206004840152602e602484015260008051602061286f8339815191526044840152820152fd5b509067696f6e206461746560c01b6040519162461bcd60e51b835260206004840152602860248401527f4865616c746820636c61696d206d75737420696e636c7564652061646d6973736044840152820152fd5b60405162461bcd60e51b815260206004820152602260248201527f4865616c746820636c61696d206d75737420696e636c75646520414142484120604482015261125160f21b81840152608490fd5b6104519150611f0990604051928380926125c3565b60208151910120611f18612735565b6020815191012014611f2b575b506118cd565b835161210d576084356120b25760a4351561206257611f52601683015460e435111561277d565b6018820154603c810290808204603c14901517156105f257611f79906101043511156127d3565b82517f43a6044c82f40f17c19f58406df90bff8d5298e48537704f37a8075c5f36d46f602085019182206444454c415960d81b6020604051611fba81612355565b60058152015214908115612010575b50611f255760405162461bcd60e51b815260206004820152601960248201527f496e76616c69642074726176656c20636c61696d2074797065000000000000006044820152fd5b7f0f36baceb8c936b84649ec32484e0932b39d39183361a521f946479fe73660029150845190206b21a0a721a2a62620aa24a7a760a11b602060405161205581612355565b600c815201521485611fc9565b6084906208125160ea1b6040519162461bcd60e51b835260206004840152602360248401527f54726176656c20636c61696d206d75737420696e636c75646520666c696768746044840152820152fd5b6084906d61646d697373696f6e206461746560901b6040519162461bcd60e51b835260206004840152602e60248401527f54726176656c20636c61696d2073686f756c64206e6f7420696e636c756465206044840152820152fd5b60849067105050921048125160c21b6040519162461bcd60e51b835260206004840152602860248401527f54726176656c20636c61696d2073686f756c64206e6f7420696e636c756465206044840152820152fd5b5060405162461bcd60e51b815260206004820152601f60248201527f4d6178696d756d20636c61696d732070657220796561722072656163686564006044820152fd5b60405162461bcd60e51b815260206004820152602f60248201527f436c61696d20616d6f756e742065786365656473206d6178696d756d20636f7660448201526e65726167652070657220636c61696d60881b81840152608490fd5b60405162461bcd60e51b815260206004820152602660248201527f436c61696d20616d6f756e74206d7573742062652067726561746572207468616044820152656e207a65726f60d01b81840152608490fd5b5060405162461bcd60e51b815260206004820152600e60248201526d141bdb1a58de48195e1c1a5c995960921b6044820152fd5b5060405162461bcd60e51b815260206004820152601760248201527f57616974696e6720706572696f64206e6f74206f7665720000000000000000006044820152fd5b5060405162461bcd60e51b8152602060048201526014602482015273506f6c696379206973206e6f742061637469766560601b6044820152fd5b60405162461bcd60e51b815260206004820152602360248201527f4f6e6c7920706f6c696379686f6c6465722063616e207375626d697420636c61604482015262696d7360e81b81840152608490fd5b604081019081106001600160401b038211176103ae57604052565b90601f801991011681019081106001600160401b038211176103ae57604052565b81601f820112156100ea578035906001600160401b0382116103ae57604051926123c5601f8401601f191660200185612370565b828452602083830101116100ea57816000926020809301838601378301015290565b600435906001600160a01b03821682036100ea57565b6001600160401b0381116103ae5760051b60200190565b9080601f830112156100ea5781359061242c826123fd565b9261243a6040519485612370565b828452602092838086019160051b830101928084116100ea57848301915b8483106124685750505050505090565b82356001600160401b0381116100ea57869161248984848094890101612391565b815201920191612458565b919082519283825260005b8481106124c0575050826000602080949584010152601f8019910116010190565b60208183018101518483018201520161249f565b80548210156124ec5760005260206000200190600090565b634e487b7160e01b600052603260045260246000fd5b9a9793999e9d9c9961256a97938c60206101a09f9c98999561254395835260018060a01b031691015260408d015260608c6101c091829101528c0190612494565b9460808b0152151560a08a0152151560c089015260e0880152868203610100880152612494565b9761012085015261014084015215156101608301526101808201520152565b90600182811c921680156125b9575b60208310146125a357565b634e487b7160e01b600052602260045260246000fd5b91607f1691612598565b90600092918054916125d483612589565b91828252600193848116908160001461263657506001146125f6575b50505050565b90919394506000526020928360002092846000945b8386106126225750505050010190388080806125f0565b80548587018301529401938590820161260b565b9294505050602093945060ff191683830152151560051b010190388080806125f0565b908154612665816123fd565b9260409361267585519182612370565b828152809460208092019260005281600020906000935b85851061269b57505050505050565b600184819284516126b081610451818a6125c3565b81520193019401939161268c565b90815180825260208092019182818360051b85019501936000915b8483106126e95750505050505090565b909192939495848061270383856001950387528a51612494565b98019301930191949392906126d9565b6040519061272082612355565b60068252650908a8298a8960d31b6020830152565b6040519061274282612355565b600682526515149055915360d21b6020830152565b60001981146105f25760010190565b818110612771575050565b60008155600101612766565b1561278457565b60405162461bcd60e51b815260206004820152602160248201527f466c696768742064656c6179206578636565647320706f6c696379206c696d696044820152601d60fa1b6064820152608490fd5b156127da57565b60405162461bcd60e51b8152602060048201526024808201527f466c69676874206475726174696f6e206578636565647320706f6c696379206c6044820152631a5b5a5d60e21b6064820152608490fd5b1561283257565b60405162461bcd60e51b815260206004820152601460248201527310db185a5b48191bd95cc81b9bdd08195e1a5cdd60621b6044820152606490fdfe4865616c746820636c61696d2073686f756c64206e6f7420696e636c75646520a264697066735822122037ad104cc3a99a53534cd6450ba305b4e64a783adcaad94c16982d113182fdf864736f6c63430008130033",
  "linkReferences": {},
  "deployedLinkReferences": {}
}