{
  "_format": "hh-sol-artifact-1",
  "contractName": "InsuranceClaims",
  "sourceName": "contracts/InsuranceClaims.sol",
  "abi": [
    {
      "inputs": [],
      "stateMutability": "nonpayable",
      "type": "constructor"
    },
    {
      "anonymous": false,
      "inputs": [
        {
          "indexed": true,
          "internalType": "uint256",
          "name": "claimId",
          "type": "uint256"
        },
        {
          "indexed": true,
          "internalType": "string",
          "name": "policyNumber",
          "type": "string"
        },
        {
          "indexed": true,
          "internalType": "address",
          "name": "claimant",
          "type": "address"
        },
        {
          "indexed": false,
          "internalType": "uint256",
          "name": "paidAmount",
          "type": "uint256"
        }
      ],
      "name": "ClaimProcessed",
      "type": "event"
    },
    {
      "anonymous": false,
      "inputs": [
        {
          "indexed": true,
          "internalType": "uint256",
          "name": "claimId",
          "type": "uint256"
        },
        {
          "indexed": true,
          "internalType": "string",
          "name": "policyNumber",
          "type": "string"
        },
        {
          "indexed": true,
          "internalType": "address",
          "name": "claimant",
          "type": "address"
        },
        {
          "indexed": false,
          "internalType": "uint256",
          "name": "amount",
          "type": "uint256"
        },
        {
          "indexed": false,
          "internalType": "string",
          "name": "treatmentType",
          "type": "string"
        }
      ],
      "name": "ClaimSubmitted",
      "type": "event"
    },
    {
      "anonymous": false,
      "inputs": [
        {
          "indexed": true,
          "internalType": "uint256",
          "name": "claimId",
          "type": "uint256"
        }
      ],
      "name": "ClaimVerified",
      "type": "event"
    },
    {
      "anonymous": false,
      "inputs": [
        {
          "indexed": true,
          "internalType": "string",
          "name": "policyNumber",
          "type": "string"
        },
        {
          "indexed": true,
          "internalType": "address",
          "name": "policyholder",
          "type": "address"
        },
        {
          "indexed": false,
          "internalType": "uint256",
          "name": "coverageAmount",
          "type": "uint256"
        },
        {
          "indexed": false,
          "internalType": "uint256",
          "name": "startDate",
          "type": "uint256"
        },
        {
          "indexed": false,
          "internalType": "uint256",
          "name": "endDate",
          "type": "uint256"
        },
        {
          "indexed": false,
          "internalType": "string",
          "name": "policyType",
          "type": "string"
        }
      ],
      "name": "PolicyCreated",
      "type": "event"
    },
    {
      "inputs": [
        {
          "internalType": "uint256",
          "name": "",
          "type": "uint256"
        }
      ],
      "name": "claims",
      "outputs": [
        {
          "internalType": "string",
          "name": "policyNumber",
          "type": "string"
        },
        {
          "internalType": "address",
          "name": "policyholder",
          "type": "address"
        },
        {
          "internalType": "uint256",
          "name": "amount",
          "type": "uint256"
        },
        {
          "internalType": "string",
          "name": "treatmentType",
          "type": "string"
        },
        {
          "internalType": "uint256",
          "name": "timestamp",
          "type": "uint256"
        },
        {
          "internalType": "bool",
          "name": "isVerified",
          "type": "bool"
        },
        {
          "internalType": "bool",
          "name": "isPaid",
          "type": "bool"
        },
        {
          "internalType": "uint256",
          "name": "paidAmount",
          "type": "uint256"
        },
        {
          "internalType": "string",
          "name": "aabhaId",
          "type": "string"
        },
        {
          "internalType": "uint256",
          "name": "patientAdmissionDate",
          "type": "uint256"
        },
        {
          "internalType": "uint256",
          "name": "flightId",
          "type": "uint256"
        },
        {
          "internalType": "bool",
          "name": "flightCancellationStatus",
          "type": "bool"
        },
        {
          "internalType": "uint256",
          "name": "flightDelayMinutes",
          "type": "uint256"
        },
        {
          "internalType": "uint256",
          "name": "flightDurationMinutes",
          "type": "uint256"
        }
      ],
      "stateMutability": "view",
      "type": "function"
    },
    {
      "inputs": [
        {
          "internalType": "string",
          "name": "",
          "type": "string"
        }
      ],
      "name": "claimsCountPerYear",
      "outputs": [
        {
          "internalType": "uint256",
          "name": "",
          "type": "uint256"
        }
      ],
      "stateMutability": "view",
      "type": "function"
    },
    {
      "inputs": [
        {
          "internalType": "string",
          "name": "_policyNumber",
          "type": "string"
        },
        {
          "internalType": "address",
          "name": "_policyholder",
          "type": "address"
        },
        {
          "internalType": "uint256",
          "name": "_coverageAmount",
          "type": "uint256"
        },
        {
          "internalType": "uint256",
          "name": "_startDate",
          "type": "uint256"
        },
        {
          "internalType": "uint256",
          "name": "_endDate",
          "type": "uint256"
        },
        {
          "internalType": "string",
          "name": "_policyType",
          "type": "string"
        },
        {
          "internalType": "uint256",
          "name": "_maxCoveragePerClaim",
          "type": "uint256"
        },
        {
          "internalType": "uint256",
          "name": "_copayPercentage",
          "type": "uint256"
        },
        {
          "internalType": "string[]",
          "name": "_coveredTreatments",
          "type": "string[]"
        },
        {
          "internalType": "string[]",
          "name": "_excludedTreatments",
          "type": "string[]"
        },
        {
          "internalType": "uint256",
          "name": "_waitingPeriod",
          "type": "uint256"
        },
        {
          "internalType": "uint256",
          "name": "_maxClaimsPerYear",
          "type": "uint256"
        },
        {
          "internalType": "bool",
          "name": "_preExistingConditionsCovered",
          "type": "bool"
        },
        {
          "internalType": "uint256",
          "name": "_maxHospitalizationDays",
          "type": "uint256"
        },
        {
          "internalType": "uint256",
          "name": "_maxRoomRent",
          "type": "uint256"
        },
        {
          "internalType": "uint256",
          "name": "_maxICUCharges",
          "type": "uint256"
        },
        {
          "internalType": "uint256",
          "name": "_maxOperationCharges",
          "type": "uint256"
        },
        {
          "internalType": "uint256",
          "name": "_maxMedicineCharges",
          "type": "uint256"
        },
        {
          "internalType": "uint256",
          "name": "_maxDiagnosticCharges",
          "type": "uint256"
        },
        {
          "internalType": "uint256",
          "name": "_maxAmbulanceCharges",
          "type": "uint256"
        },
        {
          "internalType": "uint256",
          "name": "_maxPreHospitalizationDays",
          "type": "uint256"
        },
        {
          "internalType": "uint256",
          "name": "_maxPostHospitalizationDays",
          "type": "uint256"
        },
        {
          "internalType": "uint256",
          "name": "_delayTimeMinutes",
          "type": "uint256"
        },
        {
          "internalType": "bool",
          "name": "_cancellationStatus",
          "type": "bool"
        },
        {
          "internalType": "uint256",
          "name": "_travelTimeHours",
          "type": "uint256"
        }
      ],
      "name": "createPolicy",
      "outputs": [],
      "stateMutability": "nonpayable",
      "type": "function"
    },
    {
      "inputs": [
        {
          "internalType": "uint256",
          "name": "_claimId",
          "type": "uint256"
        }
      ],
      "name": "getClaim",
      "outputs": [
        {
          "internalType": "string",
          "name": "policyNumber",
          "type": "string"
        },
        {
          "internalType": "address",
          "name": "policyholder",
          "type": "address"
        },
        {
          "internalType": "uint256",
          "name": "amount",
          "type": "uint256"
        },
        {
          "internalType": "string",
          "name": "treatmentType",
          "type": "string"
        },
        {
          "internalType": "uint256",
          "name": "timestamp",
          "type": "uint256"
        },
        {
          "internalType": "bool",
          "name": "isVerified",
          "type": "bool"
        },
        {
          "internalType": "bool",
          "name": "isPaid",
          "type": "bool"
        },
        {
          "internalType": "uint256",
          "name": "paidAmount",
          "type": "uint256"
        },
        {
          "internalType": "string",
          "name": "aabhaId",
          "type": "string"
        },
        {
          "internalType": "uint256",
          "name": "patientAdmissionDate",
          "type": "uint256"
        },
        {
          "internalType": "uint256",
          "name": "flightId",
          "type": "uint256"
        },
        {
          "internalType": "bool",
          "name": "flightCancellationStatus",
          "type": "bool"
        },
        {
          "internalType": "uint256",
          "name": "flightDelayMinutes",
          "type": "uint256"
        },
        {
          "internalType": "uint256",
          "name": "flightDurationMinutes",
          "type": "uint256"
        }
      ],
      "stateMutability": "view",
      "type": "function"
    },
    {
      "inputs": [
        {
          "internalType": "string",
          "name": "_policyNumber",
          "type": "string"
        }
      ],
      "name": "getPolicy",
      "outputs": [
        {
          "internalType": "address",
          "name": "policyholder",
          "type": "address"
        },
        {
          "internalType": "uint256",
          "name": "coverageAmount",
          "type": "uint256"
        },
        {
          "internalType": "uint256",
          "name": "startDate",
          "type": "uint256"
        },
        {
          "internalType": "uint256",
          "name": "endDate",
          "type": "uint256"
        },
        {
          "internalType": "string",
          "name": "policyType",
          "type": "string"
        },
        {
          "internalType": "bool",
          "name": "isActive",
          "type": "bool"
        }
      ],
      "stateMutability": "view",
      "type": "function"
    },
    {
      "inputs": [],
      "name": "insurer",
      "outputs": [
        {
          "internalType": "address",
          "name": "",
          "type": "address"
        }
      ],
      "stateMutability": "view",
      "type": "function"
    },
    {
      "inputs": [],
      "name": "nextClaimId",
      "outputs": [
        {
          "internalType": "uint256",
          "name": "",
          "type": "uint256"
        }
      ],
      "stateMutability": "view",
      "type": "function"
    },
    {
      "inputs": [],
      "name": "nextRecordId",
      "outputs": [
        {
          "internalType": "uint256",
          "name": "",
          "type": "uint256"
        }
      ],
      "stateMutability": "view",
      "type": "function"
    },
    {
      "inputs": [],
      "name": "owner",
      "outputs": [
        {
          "internalType": "address",
          "name": "",
          "type": "address"
        }
      ],
      "stateMutability": "view",
      "type": "function"
    },
    {
      "inputs": [
        {
          "internalType": "string",
          "name": "",
          "type": "string"
        }
      ],
      "name": "policies",
      "outputs": [
        {
          "internalType": "address",
          "name": "policyholder",
          "type": "address"
        },
        {
          "internalType": "uint256",
          "name": "coverageAmount",
          "type": "uint256"
        },
        {
          "internalType": "uint256",
          "name": "startDate",
          "type": "uint256"
        },
        {
          "internalType": "uint256",
          "name": "endDate",
          "type": "uint256"
        },
        {
          "internalType": "string",
          "name": "policyType",
          "type": "string"
        },
        {
          "internalType": "bool",
          "name": "isActive",
          "type": "bool"
        },
        {
          "components": [
            {
              "internalType": "uint256",
              "name": "maxCoveragePerClaim",
              "type": "uint256"
            },
            {
              "internalType": "uint256",
              "name": "copayPercentage",
              "type": "uint256"
            },
            {
              "internalType": "string[]",
              "name": "coveredTreatments",
              "type": "string[]"
            },
            {
              "internalType": "string[]",
              "name": "excludedTreatments",
              "type": "string[]"
            },
            {
              "internalType": "uint256",
              "name": "waitingPeriod",
              "type": "uint256"
            },
            {
              "internalType": "uint256",
              "name": "maxClaimsPerYear",
              "type": "uint256"
            },
            {
              "internalType": "bool",
              "name": "preExistingConditionsCovered",
              "type": "bool"
            },
            {
              "internalType": "uint256",
              "name": "maxHospitalizationDays",
              "type": "uint256"
            },
            {
              "internalType": "uint256",
              "name": "maxRoomRent",
              "type": "uint256"
            },
            {
              "internalType": "uint256",
              "name": "maxICUCharges",
              "type": "uint256"
            },
            {
              "internalType": "uint256",
              "name": "maxOperationCharges",
              "type": "uint256"
            },
            {
              "internalType": "uint256",
              "name": "maxMedicineCharges",
              "type": "uint256"
            },
            {
              "internalType": "uint256",
              "name": "maxDiagnosticCharges",
              "type": "uint256"
            },
            {
              "internalType": "uint256",
              "name": "maxAmbulanceCharges",
              "type": "uint256"
            },
            {
              "internalType": "uint256",
              "name": "maxPreHospitalizationDays",
              "type": "uint256"
            },
            {
              "internalType": "uint256",
              "name": "maxPostHospitalizationDays",
              "type": "uint256"
            },
            {
              "internalType": "uint256",
              "name": "delayTimeMinutes",
              "type": "uint256"
            },
            {
              "internalType": "bool",
              "name": "cancellationStatus",
              "type": "bool"
            },
            {
              "internalType": "uint256",
              "name": "travelTimeHours",
              "type": "uint256"
            }
          ],
          "internalType": "struct InsuranceClaims.PolicyTerms",
          "name": "terms",
          "type": "tuple"
        },
        {
          "internalType": "uint256",
          "name": "claimsCount",
          "type": "uint256"
        }
      ],
      "stateMutability": "view",
      "type": "function"
    },
    {
      "inputs": [
        {
          "internalType": "string",
          "name": "",
          "type": "string"
        },
        {
          "internalType": "uint256",
          "name": "",
          "type": "uint256"
        }
      ],
      "name": "policyClaims",
      "outputs": [
        {
          "internalType": "uint256",
          "name": "",
          "type": "uint256"
        }
      ],
      "stateMutability": "view",
      "type": "function"
    },
    {
      "inputs": [
        {
          "internalType": "uint256",
          "name": "_claimId",
          "type": "uint256"
        }
      ],
      "name": "processClaim",
      "outputs": [],
      "stateMutability": "nonpayable",
      "type": "function"
    },
    {
      "inputs": [
        {
          "internalType": "address",
          "name": "_insurer",
          "type": "address"
        }
      ],
      "name": "setInsurer",
      "outputs": [],
      "stateMutability": "nonpayable",
      "type": "function"
    },
    {
      "inputs": [
        {
          "internalType": "string",
          "name": "_policyNumber",
          "type": "string"
        },
        {
          "internalType": "uint256",
          "name": "_amount",
          "type": "uint256"
        },
        {
          "internalType": "string",
          "name": "_treatmentType",
          "type": "string"
        },
        {
          "internalType": "string",
          "name": "_aabhaId",
          "type": "string"
        },
        {
          "internalType": "uint256",
          "name": "_patientAdmissionDate",
          "type": "uint256"
        },
        {
          "internalType": "uint256",
          "name": "_flightId",
          "type": "uint256"
        },
        {
          "internalType": "bool",
          "name": "_flightCancellationStatus",
          "type": "bool"
        },
        {
          "internalType": "uint256",
          "name": "_flightDelayMinutes",
          "type": "uint256"
        },
        {
          "internalType": "uint256",
          "name": "_flightDurationMinutes",
          "type": "uint256"
        }
      ],
      "name": "submitClaim",
      "outputs": [],
      "stateMutability": "nonpayable",
      "type": "function"
    },
    {
      "inputs": [
        {
          "internalType": "uint256",
          "name": "_claimId",
          "type": "uint256"
        }
      ],
      "name": "verifyClaim",
      "outputs": [],
      "stateMutability": "nonpayable",
      "type": "function"
    }
  ],
  "bytecode": "0x6080806040523461003257600080546001600160a01b0319163317905560016002819055600355612b3290816100388239f35b600080fdfe6080604052600436101561001257600080fd5b60003560e01c806333e12bfb146124d25780634a7ba3e5146122305780635aef24471461217057806360dd5f90146120725780636f5d13a014611ff95780637257dfc914611eab5780638da5cb5b14611e82578063a0021cf114611e64578063a888c2cd14611dbd578063a8e7410814611d20578063c0d7e2b614611aeb578063c60685d914610dba578063dbc837c514610d91578063dbde207d14610d735763fb20dec8146100c157600080fd5b34610d6e57610320366003190112610d6e576004356001600160401b038111610d6e576100f2903690600401612557565b6024356001600160a01b038082168203610d6e5760a4356001600160401b038111610d6e57610125903690600401612557565b92610104356001600160401b038111610d6e5761014690369060040161285e565b610124356001600160401b038111610d6e5761016690369060040161285e565b6101843515156101843503610d6e576102e43515156102e43503610d6e5783600154163303610d1d5783851615610cd85760443515610c815760643515610c47576064356084351115610bf85760443560c43511610b9757606460e43511610b4757605a6101443511610af65761016435151580610ae8575b15610a8e5761016d6101a43511610a3657601e61028435116109db57603c6102a4351161097f576101e06102c4351161093b57603061030435116108eb5785516020870190812061022e6128de565b60208151910120149081156108cf575b50156108945760405160208185516102598183858a016125ad565b81016004815203019020918486166bffffffffffffffffffffffff60a01b84541617835560443560018401556064356002840155608435600384015586516001600160401b0381116105c0576102b260048501546125d0565b601f8111610854575b50806020601f82116001146107e6576000916107db575b508160011b916000199060031b1c19161760048401555b60c435600684015560e4356007840155805190600160401b82116105c0576008840154826008860155808310610763575b5060200190600884016000526020600020916000905b82821061064e5750505050805190600160401b82116105c05760098301548260098501558083106105d6575b5060200190600983016000526020600020916000905b8282106104a05788887fd192fb9f92e59ade33907b028771f797fa186ff0d39b5c72636b25cfccc4bd80896104698a600060198c61014435600a82015561016435600b8201556103d461018435600c83019060ff801983541691151516179055565b6101a435600d8201556101c435600e8201556101e435600f8201556102043560108201556102243560118201556102443560128201556102643560138201556102843560148201556102a43560158201556102c435601682015561044a6102e435601783019060ff801983541691151516179055565b61030435601882015560058101805460ff191660011790550155612939565b9261049b604051928392604435845260643560208501526084356040850152608060608501521695608083019061271c565b0390a3005b80518051906001600160401b0382116105c0576104bd86546125d0565b601f8111610583575b50602090601f8311600114610513579282600194936020938695600092610508575b5050600019600383901b1c191690841b1787555b01940191019092610372565b0151905038806104e8565b908660005260206000209160005b601f198516811061056b575083602093600196938796938794601f19811610610552575b505050811b0187556104fc565b015160001960f88460031b161c19169055388080610545565b91926020600181928685015181550194019201610521565b6105b0908760005260206000206005601f8601811c820192602087106105b6575b601f01901c0190612922565b386104c6565b91925082916105a4565b634e487b7160e01b600052604160045260246000fd5b600984016000526020600020908382015b81830181106105f757505061035c565b80610604600192546125d0565b80610611575b50016105e7565b601f811183146106275750600081555b3861060a565b600090828252610645601f60208420920160051c8201858301612922565b81835555610621565b80518051906001600160401b0382116105c05761066b86546125d0565b601f8111610731575b50602090601f83116001146106c15792826001949360209386956000926106b6575b5050600019600383901b1c191690841b1787555b01940191019092610330565b015190503880610696565b908660005260206000209160005b601f1985168110610719575083602093600196938796938794601f19811610610700575b505050811b0187556106aa565b015160001960f88460031b161c191690553880806106f3565b919260206001819286850151815501940192016106cf565b61075d908760005260206000206005601f8601811c820192602087106105b657601f01901c0190612922565b38610674565b600885016000526020600020908382015b818301811061078457505061031a565b80610791600192546125d0565b8061079e575b5001610774565b601f811183146107b45750600081555b38610797565b6000908282526107d2601f60208420920160051c8201858301612922565b818355556107ae565b9050880151386102d2565b91506004850160005260206000206000925b8a601f198416851061083d57506001935082601f19811610610824575b5050811b0160048401556102e9565b8a015160001960f88460031b161c191690553880610815565b8101518255602093840193600190920191016107f8565b61088490600486016000526020600020601f840160051c8101916020851061088a575b601f0160051c0190612922565b386102bb565b9091508190610877565b60405162461bcd60e51b8152602060048201526013602482015272496e76616c696420706f6c696379207479706560681b6044820152606490fd5b9050865190206108dd612900565b60208151910120143861023e565b60405162461bcd60e51b815260206004820152602260248201527f54726176656c2074696d652063616e6e6f742065786365656420343820686f75604482015261727360f01b6064820152608490fd5b606460405162461bcd60e51b815260206004820152602060248201527f44656c61792074696d652063616e6e6f7420657863656564203820686f7572736044820152fd5b60405162461bcd60e51b815260206004820152602e60248201527f4d617820706f73742d686f73706974616c697a6174696f6e206461797320636160448201526d06e6e6f74206578636565642036360941b6064820152608490fd5b60405162461bcd60e51b815260206004820152602d60248201527f4d6178207072652d686f73706974616c697a6174696f6e20646179732063616e60448201526c06e6f742065786365656420333609c1b6064820152608490fd5b60405162461bcd60e51b815260206004820152602a60248201527f4d617820686f73706974616c697a6174696f6e20646179732063616e6e6f74206044820152696578636565642033363560b01b6064820152608490fd5b60405162461bcd60e51b815260206004820152602c60248201527f4d617820636c61696d73207065722079656172206d757374206265206265747760448201526b065656e203120616e642031360a41b6064820152608490fd5b50600a6101643511156101df565b60405162461bcd60e51b8152602060048201526024808201527f57616974696e6720706572696f642063616e6e6f7420657863656564203930206044820152636461797360e01b6064820152608490fd5b60405162461bcd60e51b815260206004820152602260248201527f436f7061792070657263656e746167652063616e6e6f74206578636565642031604482015261030360f41b6064820152608490fd5b60405162461bcd60e51b815260206004820152603360248201527f4d617820636f7665726167652070657220636c61696d2063616e6e6f742065786044820152726365656420746f74616c20636f76657261676560681b6064820152608490fd5b60405162461bcd60e51b815260206004820152602160248201527f456e642064617465206d757374206265206166746572207374617274206461746044820152606560f81b6064820152608490fd5b60405162461bcd60e51b8152602060048201526012602482015271496e76616c6964207374617274206461746560701b6044820152606490fd5b60405162461bcd60e51b815260206004820152602960248201527f436f76657261676520616d6f756e74206d7573742062652067726561746572206044820152687468616e207a65726f60b81b6064820152608490fd5b60405162461bcd60e51b815260206004820152601c60248201527f496e76616c696420706f6c696379686f6c6465722061646472657373000000006044820152606490fd5b60405162461bcd60e51b815260206004820152602360248201527f4f6e6c7920696e73757265722063616e2063616c6c20746869732066756e637460448201526234b7b760e91b6064820152608490fd5b600080fd5b34610d6e576000366003190112610d6e576020600354604051908152f35b34610d6e576000366003190112610d6e576001546040516001600160a01b039091168152602090f35b34610d6e57610120366003190112610d6e576004356001600160401b038111610d6e57610deb903690600401612557565b6044356001600160401b038111610d6e57610e0a903690600401612557565b9060649081356001600160401b038111610d6e57610e2c903690600401612557565b9160c435151560c43503610d6e576040516020818451610e4f81838589016125ad565b810160048152030190209060018060a01b038254163303611a9b5760ff60058301541615611a62576002820154600a83015462015180908181029181830414901517156117e65781018091116117e6574210611a2057600382015442116119ed576024351561199a5760068201546024351161193e576019820154600b83015411156118fc57610ee16004830161260a565b60208151910120610ef06128de565b6020815191012014600014611681578351156116325760848035156115df5760a4356115985760c43561154c5760e43561150757610104356114bf5750600982015460005b81811061144a5750506000806008840154905b818110611407575b5050156113c557505b60025492610f6684612a07565b60025583600052600560205260406000209083516001600160401b0381116105c057610f9283546125d0565b601f8111611393575b50806020601f821160011461132c57600091611321575b508160011b916000199060031b1c19161782555b6001820180546001600160a01b03191633179055602435600283015585516001600160401b0381116105c057610fff60038401546125d0565b601f81116112ec575b50806020601f821160011461127f57600091611274575b508160011b916000199060031b1c19161760038301555b8051906001600160401b0382116105c057819061105660078501546125d0565b601f811161123f575b50602090601f83116001146111cd576000926111c2575b50508160011b916000199060031b1c19161760078201555b608435600882015560a43560098201556110b960c435600a83019060ff801983541691151516179055565b60e435600b82015561010435600c8201556005810161ffff1981541690556000600682015560044291015560196110f281830154612a07565b910155604051602081835161110a81838588016125ad565b8101600681520301902090815491600160401b8310156105c0578261113791600161117c95018155612830565b81549060031b9085821b91600019901b1916179055604051602081835161116181838588016125ad565b810160078152030190206111758154612a07565b9055612939565b907f638b9df33b7f660e287d98ce3f73b14ea754b151e0bcd9dd181499b9fbc2d17b604051602435815260406020820152806111bd3396604083019061271c565b0390a4005b015190508780611076565b9250600784016000526020600020906000935b601f1984168510611224576001945083601f1981161061120b575b505050811b01600782015561108e565b015160001960f88460031b161c191690558780806111fb565b818101518355602094850194600190930192909101906111e0565b61126e90600786016000526020600020601f850160051c8101916020861061088a57601f0160051c0190612922565b8861105f565b90508701518861101f565b91506003840160005260206000206000925b601f19831684106112d4576001935082601f198116106112bb575b5050811b016003830155611036565b89015160001960f88460031b161c1916905588806112ac565b89810151825560209384019360019092019101611291565b61131b90600385016000526020600020601f840160051c8101916020851061088a57601f0160051c0190612922565b87611008565b905085015188610fb2565b91508360005260206000206000925b601f198316841061137b576001935082601f19811610611362575b5050811b018255610fc6565b87015160001960f88460031b161c191690558880611356565b8781015182556020938401936001909201910161133b565b6113bf90846000526020600020601f840160051c8101916020851061088a57601f0160051c0190612922565b87610f9b565b60405162461bcd60e51b815260206004820152601f60248201527f54726561746d656e74206e6f7420636f766572656420627920706f6c696379006044820152fd5b61141d6114178260088801612830565b5061260a565b60208151910120885160208a01201461143e5761143990612a07565b610f48565b50505060018680610f50565b61145a6114178260098701612830565b60208151910120875160208901201461147b5761147690612a07565b610f35565b60405162461bcd60e51b815260206004820152601c60248201527f54726561746d656e74206578636c7564656420627920706f6c6963790000000060448201528390fd5b906e333634b3b43a10323ab930ba34b7b760891b6040519162461bcd60e51b835260206004840152602f6024840152600080516020612add8339815191526044840152820152fd5b906b666c696768742064656c617960a01b6040519162461bcd60e51b835260206004840152602c6024840152600080516020612add8339815191526044840152820152fd5b9072333634b3b43a1031b0b731b2b63630ba34b7b760691b6040519162461bcd60e51b83526020600484015260336024840152600080516020612add8339815191526044840152820152fd5b906d666c696768742064657461696c7360901b6040519162461bcd60e51b835260206004840152602e6024840152600080516020612add8339815191526044840152820152fd5b9067696f6e206461746560c01b6040519162461bcd60e51b835260206004840152602860248401527f4865616c746820636c61696d206d75737420696e636c7564652061646d6973736044840152820152fd5b60849061125160f21b6040519162461bcd60e51b835260206004840152602260248401527f4865616c746820636c61696d206d75737420696e636c756465204141424841206044840152820152fd5b61168d6004830161260a565b6020815191012061169c612900565b60208151910120146116af575b50610f59565b83516118a75760843561184c5760a435156117fc576116d6601683015460e4351115612959565b6018820154603c810290808204603c14901517156117e6576116fd906101043511156129af565b84517f43a6044c82f40f17c19f58406df90bff8d5298e48537704f37a8075c5f36d46f602087019182206444454c415960d81b602060405161173e8161251b565b60058152015214908115611794575b506116a95760405162461bcd60e51b815260206004820152601960248201527f496e76616c69642074726176656c20636c61696d2074797065000000000000006044820152fd5b7f0f36baceb8c936b84649ec32484e0932b39d39183361a521f946479fe73660029150865190206b21a0a721a2a62620aa24a7a760a11b60206040516117d98161251b565b600c81520152148661174d565b634e487b7160e01b600052601160045260246000fd5b6084906208125160ea1b6040519162461bcd60e51b835260206004840152602360248401527f54726176656c20636c61696d206d75737420696e636c75646520666c696768746044840152820152fd5b6084906d61646d697373696f6e206461746560901b6040519162461bcd60e51b835260206004840152602e60248401527f54726176656c20636c61696d2073686f756c64206e6f7420696e636c756465206044840152820152fd5b60849067105050921048125160c21b6040519162461bcd60e51b835260206004840152602860248401527f54726176656c20636c61696d2073686f756c64206e6f7420696e636c756465206044840152820152fd5b60405162461bcd60e51b815260206004820152601f60248201527f4d6178696d756d20636c61696d732070657220796561722072656163686564006044820152fd5b6084906e65726167652070657220636c61696d60881b6040519162461bcd60e51b835260206004840152602f60248401527f436c61696d20616d6f756e742065786365656473206d6178696d756d20636f766044840152820152fd5b608490656e207a65726f60d01b6040519162461bcd60e51b835260206004840152602660248401527f436c61696d20616d6f756e74206d7573742062652067726561746572207468616044840152820152fd5b60405162461bcd60e51b815260206004820152600e60248201526d141bdb1a58de48195e1c1a5c995960921b6044820152fd5b60405162461bcd60e51b815260206004820152601760248201527f57616974696e6720706572696f64206e6f74206f7665720000000000000000006044820152fd5b60405162461bcd60e51b8152602060048201526014602482015273506f6c696379206973206e6f742061637469766560601b6044820152fd5b60849062696d7360e81b6040519162461bcd60e51b835260206004840152602360248401527f4f6e6c7920706f6c696379686f6c6465722063616e207375626d697420636c616044840152820152fd5b34610d6e57602080600319360112610d6e57600435908160005260058152611b1c6004604060002001541515612a16565b81600052600581526040600020906040518181611b398186612a59565b6004815203019020611b4d6004820161260a565b828151910120611b5b6128de565b80519084012003611c2f5750611b7460078301546125d0565b15611bf857600882015415611bbb57506005905b01805460ff191660011790557f393efda0b92bc01071b66a816d6bcddde867b8c91da505a0f309d9133a53650a600080a2005b6064906040519062461bcd60e51b8252600482015260166024820152754d697373696e672061646d697373696f6e206461746560501b6044820152fd5b6064906040519062461bcd60e51b82526004820152601060248201526f135a5cdcda5b99c8105050921048125160821b6044820152fd5b600983015415611ce757611c4d600b84015460168301541015612959565b600c8301546018820154603c810290808204603c14901517156117e657611c759111156129af565b60ff601781600a8601541692015416151590151503611c975750600590611b88565b6084906040519062461bcd60e51b82526004820152602360248201527f466c696768742063616e63656c6c6174696f6e20737461747573206d69736d616044820152620e8c6d60eb1b6064820152fd5b60405162461bcd60e51b8152600481018390526011602482015270135a5cdcda5b99c8199b1a59da1d081251607a1b6044820152606490fd5b34610d6e576020366003190112610d6e576004356001600160a01b0381811691829003610d6e57600054163303611d6e576bffffffffffffffffffffffff60a01b6001541617600155600080f35b60405162461bcd60e51b815260206004820152602160248201527f4f6e6c79206f776e65722063616e2063616c6c20746869732066756e6374696f6044820152603760f91b6064820152608490fd5b34610d6e576020366003190112610d6e5760043560005260056020526040600020611de78161260a565b611e6060018060a01b0360018401541691600284015493611e0a6003820161260a565b9160048201549060058301546006840154611e276007860161260a565b9060088601549260098701549460ff600a8901541696600c600b8a0154990154996040519d8e9d8e9460ff808860081c1697169561279d565b0390f35b34610d6e576000366003190112610d6e576020600254604051908152f35b34610d6e576000366003190112610d6e576000546040516001600160a01b039091168152602090f35b34610d6e57602080600319360112610d6e57600435908160005260058152604060002091600583019182549060ff821615611fc05760ff8260081c16611f87576040518181611efa8189612a59565b600481520301902093600760028701549501548086029086820414861517156117e6576064900485039485116117e6576101007f6b7553a4bd186b51edcbeec8f3e76a9437a907be9ad2aba7e318eccc2816ea9a9361ff001916179055836006860155611f7a60018060a01b036001870154169560405191828092612a59565b03902093604051908152a4005b6064906040519062461bcd60e51b82526004820152601260248201527110db185a5b48185b1c9958591e481c185a5960721b6044820152fd5b6064906040519062461bcd60e51b82526004820152601260248201527110db185a5b481b9bdd081d995c9a599a595960721b6044820152fd5b34610d6e576040366003190112610d6e576004356001600160401b038111610d6e57612029903690600401612557565b61204560206024359281604051938285809451938492016125ad565b810160068152030190208054821015610d6e5760209161206491612830565b90546040519160031b1c8152f35b34610d6e576020366003190112610d6e576004356001600160401b038111610d6e5760206120a76120ba923690600401612557565b81604051938285809451938492016125ad565b60049082019081520301902080546001600160a01b0316801561213357600182015491612127600282015460038301546120fe600460ff600587015416950161260a565b91604051968796875260208701526040860152606085015260c0608085015260c084019061271c565b90151560a08301520390f35b60405162461bcd60e51b8152602060048201526015602482015274141bdb1a58de48191bd95cc81b9bdd08195e1a5cdd605a1b6044820152606490fd5b34610d6e576020366003190112610d6e576004358060005260056020526121a06004604060002001541515612a16565b6000526005602052604060002060018060a01b03600182015416611e60600283015492600481015490600581015490600681015490600881015460098201549160ff600a8201541693600b82015495600c830154976121fe8461260a565b9061221760076122106003880161260a565b960161260a565b946040519d8e9d8e9460ff808860081c1697169561279d565b34610d6e576020366003190112610d6e576001600160401b03600435818111610d6e5760206120a7612266923690600401612557565b810160048152030190209060018060a01b038254169060018301549260028101549060038101549061229a6004820161260a565b60ff6005830154169260405195610260870190878210908211176105c0576123cd9360199160405260068101548852600781015460208901526122df600882016126c7565b60408901526122f0600982016126c7565b6060890152600a8101546080890152600b81015460a089015260ff600c82015416151560c0890152600d81015460e0890152600e810154610100890152600f81015461012089015260108101546101408901526011810154610160890152601281015461018089015260138101546101a089015260148101546101c089015260158101546101e0890152601681015461020089015260ff601782015416151561022089015260188101546102408901520154946040519889988952602089015260408801526060870152610100608087015261010086019061271c565b90151560a085015283810360c085015282518152602083015160208201526102408061241f61240d60408701516102606040870152610260860190612741565b60608701518582036060870152612741565b946080810151608085015260a081015160a085015260c0810151151560c085015260e081015160e08501526101008101516101008501526101208101516101208501526101408101516101408501526101608101516101608501526101808101516101808501526101a08101516101a08501526101c08101516101c08501526101e08101516101e08501526102008101516102008501526102208101511515610220850152015191015260e08301520390f35b34610d6e576020366003190112610d6e576004356001600160401b038111610d6e5761250860206120a781933690600401612557565b8101600781520301902054604051908152f35b604081019081106001600160401b038211176105c057604052565b90601f801991011681019081106001600160401b038211176105c057604052565b81601f82011215610d6e578035906001600160401b0382116105c0576040519261258b601f8401601f191660200185612536565b82845260208383010111610d6e57816000926020809301838601378301015290565b60005b8381106125c05750506000910152565b81810151838201526020016125b0565b90600182811c92168015612600575b60208310146125ea57565b634e487b7160e01b600052602260045260246000fd5b91607f16916125df565b906040519182600082549261261e846125d0565b90818452600194858116908160001461268d575060011461264a575b505061264892500383612536565b565b9093915060005260209081600020936000915b8183106126755750506126489350820101388061263a565b8554888401850152948501948794509183019161265d565b91505061264894506020925060ff191682840152151560051b820101388061263a565b6001600160401b0381116105c05760051b60200190565b9081546126d3816126b0565b926126e16040519485612536565b818452600090815260208082208186015b848410612700575050505050565b600183819261270e8561260a565b8152019201930192906126f2565b90602091612735815180928185528580860191016125ad565b601f01601f1916010190565b908082519081815260208091019281808460051b8301019501936000915b84831061276f5750505050505090565b909192939495848061278d600193601f198682030187528a5161271c565b980193019301919493929061275f565b9a979391999e9d9c996101a09c99959692612811989460408e6127cb6127ea966101c080845283019061271c565b6001600160a01b03909516602082015201528c820360608e015261271c565b9460808b0152151560a08a0152151560c089015260e088015286820361010088015261271c565b9761012085015261014084015215156101608301526101808201520152565b80548210156128485760005260206000200190600090565b634e487b7160e01b600052603260045260246000fd5b9080601f83011215610d6e57813590612876826126b0565b926128846040519485612536565b828452602092838086019160051b83010192808411610d6e57848301915b8483106128b25750505050505090565b82356001600160401b038111610d6e5786916128d384848094890101612557565b8152019201916128a2565b604051906128eb8261251b565b60068252650908a8298a8960d31b6020830152565b6040519061290d8261251b565b600682526515149055915360d21b6020830152565b81811061292d575050565b60008155600101612922565b612951906020604051928284809451938492016125ad565b810103902090565b1561296057565b60405162461bcd60e51b815260206004820152602160248201527f466c696768742064656c6179206578636565647320706f6c696379206c696d696044820152601d60fa1b6064820152608490fd5b156129b657565b60405162461bcd60e51b8152602060048201526024808201527f466c69676874206475726174696f6e206578636565647320706f6c696379206c6044820152631a5b5a5d60e21b6064820152608490fd5b60001981146117e65760010190565b15612a1d57565b60405162461bcd60e51b815260206004820152601460248201527310db185a5b48191bd95cc81b9bdd08195e1a5cdd60621b6044820152606490fd5b600092918154612a68816125d0565b92600191808316908115612ac15750600114612a85575b50505050565b90919293945060005260209081600020906000915b858310612ab05750505050019038808080612a7f565b805485840152918301918101612a9a565b60ff1916845250505081151590910201915038808080612a7f56fe4865616c746820636c61696d2073686f756c64206e6f7420696e636c75646520a264697066735822122094d0a3890eba7af63f1f670fa52ba2b60b0e0a8b11fa196257036e94072c244664736f6c63430008130033",
  "linkReferences": {},
  "deployedLinkReferences": {}
}